:100000000C9490050C94D7050C94D7050C94541CB3
:100010000C94D7050C94D7050C94D7050C94D705F0
:100020000C94D7050C94D7050C94C32D0C94952EE5
:100030000C9419290C94D7050C94D7050C94D7056A
:100040000C94D7050C94D7050C94D7050C94D705C0
:100050000C94D7050C9472290C94D7050C94D705F1
:100060000C94D7050C94D7050C94D7050C94D705A0
:100070000C94D7050C94D7050C94D7050C94D70590
:100080000C94D7050C94D7050C94D7050C94D70580
:100090000C94421B0C94D7050C94D7050C94D705EF
:1000A0000C94D7050C94D7050C94D705C316C61627
:1000B000CE16D316D816DD16E216E716EC16F11694
:1000C000F616FB16FD1600170317061709170C176F
:1000D0000E171317AE1FAE1FE01FE01F41212D208A
:1000E000412141213820D120E220E220D921D9210B
:1000F000EB21EB21E221EB21EB21EB21D921D921CD
:10010000E721EB21EB21E721022F292F2130292F95
:100110002130752F982F2130EF2FFE2F0000000087
:1001200000003E5B4F5B3E003E6B4F6B3E001C3E53
:100130007C3E1C00183C7E3C18001C577D571C0060
:100140001C5E7F5E1C0000183C180000FFE7C3E740
:10015000FF00001824180000FFE7DBE7FF0030482D
:100160003A060E00262979292600407F050507005A
:10017000407F05253F005A3CE73C5A007F3E1C1C4F
:100180000800081C1C3E7F0014227F2214005F5FC1
:10019000005F5F0006097F017F00006689956A00A5
:1001A00060606060600094A2FFA2940008047E0476
:1001B000080010207E20100008082A1C0800081CD7
:1001C0002A0808001E10101010000C1E0C1E0C0037
:1001D00030383E383000060E3E0E060000000000AB
:1001E000000000005F000000000700070000147F0F
:1001F000147F1400242A7F2A12002313086462004B
:10020000364956205000000807030000001C224118
:1002100000000041221C00002A1C7F1C2A00080844
:100220003E08080000807030000008080808080038
:100230000000606000002010080402003E514945A3
:100240003E0000427F40000072494949460021417A
:10025000494D33001814127F1000274545453900D9
:100260003C4A4949310041211109070036494949B1
:100270003600464949291E000000140000000040D5
:100280003400000000081422410014141414140057
:100290000041221408000201590906003E415D593F
:1002A0004E007C1211127C007F49494936003E41C4
:1002B000414122007F4141413E007F49494941007F
:1002C0007F09090901003E41415173007F08080878
:1002D0007F0000417F4100002040413F01007F0836
:1002E000142241007F40404040007F021C027F00FA
:1002F0007F0408107F003E4141413E007F0909090B
:1003000006003E4151215E007F0919294600264919
:100310004949320003017F0103003F4040403F0054
:100320001F2040201F003F4038403F006314081446
:1003300063000304780403006159494D4300007FC2
:1003400041414100020408102000004141417F006A
:10035000040201020400404040404000000307083E
:1003600000002054547840007F284444380038442A
:1003700044442800384444287F003854545418001A
:1003800000087E0902001824241C78007F08040459
:10039000780000447D4000002040403D00007F1078
:1003A0002844000000417F4000007C04780478006D
:1003B0007C08040478003844444438007C18242421
:1003C0001800182424187C007C08040408004854F1
:1003D0005454240004043F4424003C4040207C004A
:1003E0001C2040201C003C4030403C004428102889
:1003F00044004C9090907C004464544C44000008AD
:10040000364100000000770000000041360800007F
:100410000201020402003C2623263C0000000000EA
:10042000000000000000000000000000C0E0F0F844
:10043000F81800C0F0FCFEFFFFFFFFFFFFFF7E008B
:10044000000000000000000080C0E0E0E0E0E0E02C
:10045000E0E0C0800000000080C0E0E0E0E0E0E01C
:10046000E0E0C080000000E0E0C0C0E0E0E0E000CC
:1004700000E0E0C0C0E0E0E0E0E0C080000000009C
:1004800080C0E0E0E0E0E0E0E0E0C08000000000EC
:1004900000000000000000000000E0F0F0F0E0ECE0
:1004A000EEF7F37020007C7C7C7E007E7E7E7F7F7A
:1004B0007F000080C0E07E5B4F5BFEC00000C0009C
:1004C000DCD7DEDEDED7DC00C0000000000000006C
:1004D000000000000000000000000000000000001C
:1004E0000000000000F8FCFEFFE000FFFFFFFFFF40
:1004F000FF80FFFFFFFFFFFFFFFFFF1F070100005F
:1005000000000000000000FFFFFF8100000000006D
:100510000081C3C3C30000FFFFFF81000000000093
:100520000081FFFFFF0000FFFFFF0100000000004F
:1005300000FFFFFF010000000001FFFFFF0000FFC0
:10054000FFFF9D1C1C1C1C1C1C9DDFDFDF0000002E
:10055000000000000000000000000F1F3F7F7F7FB1
:100560007F7F3F1E0C001F1F1F3F003F3F3F7F7FCD
:100570007F00307B7F7830202030787F3B00030085
:100580000F7F0F0F0F7F0F0003000000000000001F
:10059000000000000000000000000000000000005B
:1005A0000000000000030F1F3F3F3F3F1F1F3F3F62
:1005B0007F7F7F3F3F1F3F7F7F7F7F7C7878381C26
:1005C0000F000000000000000103070707070707EE
:1005D00007070301000000000103070707070707DB
:1005E00007070301000000070707000000000000E4
:1005F00000070707000000000000070707000000D1
:1006000001030707070707070707030100000000AA
:1006100000000000000000000000000000000000DA
:1006200000000000000000000000000000000000CA
:1006300000000000000000000000000000000000BA
:1006400000000000000000000000000000000000AA
:100650000000000000000000000000002B0014005B
:100660001A00080015001700E0000400160007003B
:1006700009000A00E1001D001B000600190005002A
:10068000000000000000E3002A5D2C002A00130097
:1006900012000C0018001C00340033000F000E0084
:1006A0000D000B00E5003800370036001000110087
:1006B000000000000000E6002B5D280029001E005D
:1006C0001F00200021002200E0003A003B003C0017
:1006D0003D003E00E1003F00400041004200430079
:1006E000000000000000E3002A5D2C002A00270023
:1006F00026002500240023004C0000004F0052007B
:100700005100500046000000800081004500440078
:10071000000000000000E6002B5D280029001E02FA
:100720001F02200221022202E0000000000000005F
:1007300000000000E10000000000000000000000D8
:10074000000000000000E3002A5D2C002A002702C0
:1007500026022502240223023500310230022F0234
:100760002E002D003502310030002F002E022D0208
:10077000000000000000E2002B5D2800005C2E5D00
:100780000000000000000000C35CC65CC85CCA5CDE
:1007900000000000C45CC75CC95CCB5C00000000CA
:1007A000000000000000E3002A5D2C0000000000B3
:1007B0000000000000000000000000000000000039
:1007C0000000000000000000000000000000000029
:1007D000000000000000E6002B5D28001E0F050051
:1007E000047F3F1F643214643214783C1E1E140AC6
:1007F000052223252628292A2C2D2F303233353661
:10080000383A3B3D3E4042434547494A4C4E5051A1
:10081000535557595A5C5E6062646668696B6D6FC8
:1008200071737577797B7D7F81838587898A8C8ECB
:1008300090929496989A9C9E9FA1A3A5A7A8AAACD3
:10084000AEAFB1B3B4B6B8B9BBBCBEBFC1C2C3C50D
:10085000C6C7C9CACBCCCDCED0D1D2D2D3D4D5D6AF
:10086000D7D7D8D9D9DADADBDBDBDCDCDCDCDCDDE2
:10087000DDDDDDDCDCDCDCDCDBDBDBDADAD9D9D8C6
:10088000D7D7D6D5D4D3D2D2D1D0CECDCCCBCAC95E
:10089000C7C6C5C3C2C1BFBEBCBBB9B8B6B4B3B18D
:1008A000AFAEACAAA8A7A5A3A19F9E9C9A98969428
:1008B00092908E8C8A89878583817F7D7B797775FD
:1008C00073716F6D6B6968666462605E5C5A5957DC
:1008D000555351504E4C4A4947454342403E3D3B9B
:1008E0003A3836353332302F2D2C2A292826252325
:1008F00022FFAA7F55400001010101010101010110
:1009000002020202020202020203030303030303C0
:10091000030404040404040405050505050606068D
:100920000606070707070708080808090909090A4A
:100930000A0A0B0B0B0C0C0C0D0D0D0E0E0E0F0FEF
:100940000F1010111111121213131414151516167D
:100950001717181819191A1A1B1B1C1D1D1E1E1FEC
:100960002020212222232424252626272829292A3B
:100970002B2C2D2D2E2F3031323233343536373863
:10098000393A3B3C3D3E3F4041424344454647485F
:10099000494A4C4D4E4F50515354555658595A5B35
:1009A0005D5E5F616264656668696B6C6D6F7072D5
:1009B000737577787A7B7D7E8082838587888A8C41
:1009C0008E8F91939596989A9C9EA0A2A3A5A7A975
:1009D000ABADAFB1B3B5B7BABCBEC0C2C4C6C9CB6C
:1009E000CDCFD1D4D6D8DBDDDFE2E4E7E9EBEEF022
:1009F000F3F5F8FAFDFF22000321007D0022000339
:100A000021007F00DA02818FD9F1DB40A4A62EAF4E
:100A1000810000A1C800A0C000AED580A81FD300EF
:100A2000408D142000000C0343006F0072006E0024
:100A300065000000100366006F006F007300740013
:100A400061006E0000000403090409023B0002017A
:100A500000A0FA09040000010301010009211101AD
:100A600000012240000705810308000A0904010073
:100A700001030000000921110100012249000705BE
:100A8000820320000A1201100100000008534601F1
:100A90000001000102000105010902A1018502090E
:100AA00001A10005091901290815002501950875FE
:100AB0000181020501093009311581257F950275F3
:100AC00008810609381581257F950175088106057D
:100AD0000C0A38021581257F950175088106C0C072
:100AE00005010906A101050719E029E715002501FF
:100AF00095087501810295017508810105071900A6
:100B000029FF150026FF00950675088100050819C4
:100B1000012905950575019102950175039101C0A3
:100B200011241FBECFEFDAE0DEBFCDBF04B603FE57
:100B300027C08091D3049091D404A091D504B091A2
:100B4000D6048730904BA740B04BD1F41092D30419
:100B50001092D4041092D5041092D60414BE84B717
:100B6000877F84BF0FB6F894A89580916000886154
:100B700080936000109260000FBEE0E0F8E30995FA
:100B800012E0A0E0B1E0E0EEF9E602C005900D92BF
:100B9000AA35B107D9F724E0AAE5B2E001C01D9259
:100BA000A33DB207E1F70E94FB2A0C94EE340C94AB
:100BB0000000CF93DF93AFE8B1E043E951E061E09B
:100BC00070E08D91E82FE295EF70F0E021A18F7039
:100BD000EB0102C0CC0FDD1F8A95E2F7CE019C2FFE
:100BE0009095922391A392A1892B82A34A175B0728
:100BF00041F7DF91CF9108950C940B09209A559AF3
:100C0000289A5D9A08955D9808955D9A08952898A8
:100C10000895289A08950E94C7070E94D905A9E857
:100C2000B1E041E050E08D91E82FE295EF70F0E007
:100C300021A18F70BA0102C0660F771F8A95E2F773
:100C4000CB01962F9095922391A392A1892B82A3F9
:100C500071E0AF38B70739F70E94FE05E4E6F2E02D
:100C6000ACE5B2E011921D9282E0EC36F807D1F7C4
:100C70000E94A80780936C020C942C0A8F929F927A
:100C8000AF92BF92CF92DF92EF92FF920F931F939A
:100C9000CF93DF9380910501811103C0C4E0D0E0C0
:100CA00002C0C0E0D0E0AE01445A5D4F7A018FE847
:100CB000C82E81E0D82E8A01912CAA24A394B12CAD
:100CC00025E0822EF3E9CF16F1E0DF0609F44CC0EF
:100CD000F60181916F01E82FE295EF70F0E021A11C
:100CE0008F70A50102C0440F551F8A95E2F7CA0113
:100CF000922F982B91A392A18095892382A350EAE9
:100D00005A95F1F7E9E8F1E020E040E050E0319158
:100D1000A32FA295AF70B0E090968C9190E03F70B9
:100D200002C0959587953A95E2F780FD07C0C50109
:100D3000042E01C0880F0A94EAF702C080E090E018
:100D4000282B4F5F5F4F4630510509F7F80180812E
:100D5000821729F0208380920401992493940E94A1
:100D6000D9050F5F1F4FAECF809104018823B1F0EA
:100D7000815080930401811103C0CC59DD4F07C01D
:100D80008FE99FE00197F1F700C0000007C0F7016D
:100D900091917F0199938F5F8430C9F7892DDF91FD
:100DA000CF911F910F91FF90EF90DF90CF90BF9068
:100DB000AF909F908F900895CF93DF93209105017E
:100DC000211103C0C0E0D0E002C0C4E0D0E00E9426
:100DD000E207009729F00297B1F40E94070613C0BA
:100DE0000E940906CC59DD4F8091780290917902DA
:100DF000A0917A02B0917B0288839983AA83BB83F6
:100E000080E090E002C081E090E0DF91CF91089512
:100E10000E943E0690910501911103C0E4E0F0E0CC
:100E200002C0E0E0F0E0EC59FD4F20E030E090E05F
:100E3000D901A858BD4F5C914191541391E04C9356
:100E40002F5F3F4F2430310599F720917102920FA7
:100E50009093710208951F93CF93DF9380916C025A
:100E6000882309F449C00E943E06182F809105018D
:100E7000811103C0C4E0D0E002C0C0E0D0E0CC5992
:100E8000DD4F44E050E0BE0184E792E00E9459311A
:100E9000488159816A817B81409374025093750225
:100EA00060937602709377020E94DC06892BC9F06A
:100EB0000E94030680916D028F5F80936D028630E1
:100EC000A0F080910501811103C0E0E0F0E002C0D4
:100ED000E4E0F0E0EC59FD4F10821182128213829F
:100EE00004C00E94050610926D020E94340AC1E0FF
:100EF000111122C0C0E020C00E940807C1E081118A
:100F000001C0C0E080910501811103C080E090E044
:100F100002C084E090E0FC01EC59FD4F4091740266
:100F200050917502609176027091770240835183EF
:100F3000628373830E94340A8C2FDF91CF911F91BB
:100F40000895E82FF0E0EC59FD4F80810895089551
:100F500080916E02811112C08091D80080618093CF
:100F6000D8008AE18A95F1F700C08091D90080FD10
:100F700002C082E001C081E080936E0281E0909126
:100F80006E02913009F080E008950C94A8070E9449
:100F9000C507809305010E94A807882319F00E94C5
:100FA000D60702C00E94DC077894089563E070E0E1
:100FB00086E091E00C94021C63E070E086E091E032
:100FC0000C940B1C0F931F93CF93DF938C01909184
:100FD0001F0180911E01981761F082E090E00E944D
:100FE000E41CEC01892B39F480911E0180931F01D0
:100FF00002C0C0E0D0E0012B49F480916F029091D3
:101000007002892B19F480E090E002C081E090E04A
:101010000E94E41C892B49F48091710280931E0187
:101020001092700210926F0206C081E090E09093DF
:10103000700280936F02CE01DF91CF911F910F91CB
:1010400008958091C8039091C903A091CA03B091FB
:10105000CB0384309105A105B105D9F060F4009768
:10106000A105B10599F082309105A105B105D9F42A
:1010700063EB71E010C088309105A105B10581F0E6
:101080008E309105A105B10559F00DC067E971E0F9
:1010900002C066EA71E089EE93E00E947F311CC0D5
:1010A00060EC71E0F8CFBF93AF939F938F938EEC7A
:1010B00091E09F938F931F9288E18F9389EE93E045
:1010C0009F938F930E9486318DB79EB70A960FB675
:1010D000F8949EBF0FBE8DBF89EE93E0089580E225
:1010E00091E00895CF938C33910528F4FC01E051F1
:1010F000FE4FC08101C0C0E21F92CF939F938F9398
:10110000FB0180811F928F9381811F928F938FEDBE
:1011100091E09F938F931F9288E18F9383E992E0F0
:101120009F938F930E9486318DB79EB70E960FB610
:10113000F8949EBF0FBE8DBF80917C0290917D027E
:10114000449779F080917C0290917D02FC01E258F5
:10115000FD4FC083019690937D0280937C02CF91D6
:10116000089510927D0210927C02EEE7F2E080E298
:1011700092E0E239F90731F38193FACF83E992E003
:1011800008950C94FD080F931F93CF93DF93EC0108
:101190008B010E94ED1A882329F0B801CE010E942C
:1011A0006A0902C080E090E08170DF91CF911F91C9
:1011B0000F910895CF93DF93EC010E94D727BE01D2
:1011C00080E090E0DF91CF910C942625CF93DF93C0
:1011D000D62FC42F0E948625882351F08D2F0E9480
:1011E0008625882329F08C2FDF91CF910C94A6259A
:1011F0008C2FDF91CF910C94C725809103048695A5
:1012000090E090930204809301040E94A80791E06B
:1012100089270C948A1A0C94D31ACF93DF93EC018C
:1012200080916C02882371F00E942108BC01CE01DC
:101230000E94071A0E94BE08BC01CE01DF91CF9127
:101240000C94071A0E946F08BC01CE01DF91CF9168
:101250000C94F5190F931F93CF93DF93EC018B013F
:1012600044E550E00E945931892B59F084E5F8019A
:10127000DE0101900D928A95E1F7CA5ADF4F81E0B5
:101280008883DF91CF911F910F910895CF93DF93C2
:10129000CDB7DEB7C755D1090FB6F894DEBF0FBE84
:1012A000CDBFCE0101960E94131ACE0101960E9475
:1012B0000D09BE016F5F7F4F89E594E00E942A0906
:1012C000C95ADF4F0FB6F894DEBF0FBECDBFDF9116
:1012D000CF9108950F931F93CF93DF938C01EB0170
:1012E0008A81882319F0C8010E9472080A328DE5AC
:1012F0001807D9F040F4043C8CE51807C1F1093215
:101300001D4551F056C00C328DE5180731F180F0C3
:101310000E321D45F1F14DC0CA81CC2309F44AC0FB
:1013200081E090E00E94DA080EC0CA8181E002C02C
:10133000CA8182E0CC2349F00E94A62543E062E006
:1013400081E00E94E608C0E035C00E94C72543E066
:1013500062E081E00E94E6082DC0CA8183E0CC23D0
:1013600019F00E94A625EFCF0E94C72523C0CA818D
:10137000CC2301F1809101040E945A150E944A1564
:1013800080910304869590E0909302048093010479
:10139000DACFCA81CC2369F00E94CE0F0E945D157E
:1013A00080910304869590E0909302048093010459
:1013B00001C0C1E08C2FDF91CF911F910F91089553
:1013C00081E0089508950C94E2091F93CF93DF9371
:1013D00000D000D01F92CDB7DEB749835A836B830C
:1013E0003091710389819A81311114C0662359F0BB
:1013F000222349F00E949D26182F682F89819A8107
:101400000E94442603C00E947026182F69817A81A9
:10141000812F04C00E949D2669817A810F900F90D0
:101420000F900F900F90DF91CF911F910C94990A1C
:10143000FC01262F408151816281738184810C944B
:10144000E509CF93DF93EC0160E00E94180ABE012A
:10145000DF91CF910C94E3090E94C427811102C04F
:101460000E9470280C94C1080C94FC0508950E94F9
:10147000C7210E94360A2FEF84E39CE02150804070
:101480009040E1F700C000000C9498290F931F933F
:10149000CF93DF93EC0161E00E94180A8C01BE013A
:1014A0000E94C308882379F1BE01C8010E94BB17BE
:1014B000882349F1BE01C8010E940D18882319F143
:1014C000BE01C8010E9438198823E9F0BE01C80195
:1014D0000E94AC168823B9F08A81882369F001152F
:1014E0008CE5180731F00F3D1C4531F40E9470283F
:1014F0000AC00E94370A07C0CE01DF91CF911F9129
:101500000F910C94E00980E0DF91CF911F910F9132
:10151000089508950C94890A81E008950C948C0A2A
:10152000CF93C82F0E948A0A8C2F0E948E0ACF91D7
:10153000089520E3829FC0011124FC0126E0729FE0
:10154000E00DF11D1124E60FF11DEE0FFF1FE45A0F
:10155000F94F859194910895CF93DF930E94990A52
:101560000E94890BEC018115924580F5C11581E53A
:10157000D80708F095C0CF3FD10509F0B8F4CD3EAB
:10158000D10508F06CC0C53AD10548F4C430D10586
:1015900008F0BBC0C130D10509F4B7C0B4C0CE015A
:1015A000805E9109089708F4B0C0ADC0C11590E500
:1015B000D90708F059C0C11520E4D20708F051C07E
:1015C000C11580E2D80708F4A0C09DC0C11596E5FA
:1015D000D90718F5C11525E5D20708F07AC0C1155D
:1015E00084E5D80708F070C09E01237033278C2F44
:1015F00086958695C115D34508F057C0C1E0D0E067
:1016000002C0CC0FDD1F2A95E2F720E2829FC001C5
:101610001124C82BD92BDC6878C0C1152AE5D20764
:1016200078F4C11589E5D80708F05DC0C11598E5C3
:10163000D90708F468C0DC2FCC27C06FD06A65C01A
:10164000CE0190568115904208F05DC08D2F8F71AC
:101650000E941D0CDD27D0628F71D82B56C0D0653B
:1016600054C0DF70D06A51C0CE0174E09695879562
:101670007A95E1F783709C2F937021E030E002C0EF
:10168000220F331F9A95E2F73C68382BCF70C6952E
:10169000C69580E2C89FE0011124C22BD32B35C030
:1016A000DC2FCC27C16FD06A30C0C1E0D0E002C0CF
:1016B000CC0FDD1F2A95E2F720E2829FC0011124A2
:1016C000C82BD92BDA6821C0DC2FCC27C46FD06A95
:1016D0001CC08C2F0E941D0C8F71C82FD0E0DC2FF6
:1016E000CC27D06212C08C2F8F700E941D0C94E00A
:1016F000D695C7959A95E1F7CF70D0E0DC2FCC272F
:10170000D069C82B02C0C0E0D0E0CE01DF91CF91FC
:1017100008958238910569F1B0F48133910509F497
:101720006DC048F48932910509F463C08A3291058D
:1017300009F469C008958533910509F455C08933CA
:101740009105B9F00895833E910569F138F4803E22
:101750009105B1F0823E910509F10895863E91050B
:10176000A9F1873E9105B9F1843E910509F064C065
:1017700023C02091C40420FD4FC021FD4DC0089519
:101780008091C40480FD44C08091C50480FF44C0A2
:101790008091C40484FD42C083EE4DC08091C40496
:1017A00082FF38C0F5CF8091C40482FD33C08091A0
:1017B000C50480FD31C0ECCF8091C50481FF32C0EB
:1017C0008091C40484FD2AC087EE35C08091C40492
:1017D00083FF26C0F5CF8091C40483FD21C0809192
:1017E000C50481FD1FC0ECCF8091C40485FD1CC0E1
:1017F0001DC08091C40485FD19C016C08091C40429
:1018000086FD16C017C08091C40486FD13C010C0A9
:1018100089E311C082EE0FC080EE0DC080E00BC0E6
:1018200086EE09C084EE07C089E205C085E303C0E7
:101830008AE201C081E390E008959091C40492FF90
:101840000DC0282F2871283019F4877F846006C0C6
:10185000282F2471243011F48B7F886093FF0DC0F2
:10186000282F2871283119F4877E846106C0282F1B
:101870002471243111F48B7E88612091C50420FFEE
:101880000DC0382F3871383019F4877F816006C059
:10189000382F3171313011F48E7F886021FF0DC0F7
:1018A000282F2871283119F4877E816106C0282FDE
:1018B0002171213111F48E7E886194FD877E089517
:1018C0008091B10280FF0BC06091650185E0689F47
:1018D000B001112475956795759567952BC081FFAB
:1018E00009C06091650185E0689FB001112475957C
:1018F000679520C082FF07C06091650185E0689F01
:10190000B001112417C09091B0029923D1F06091D9
:101910006401961788F72091650185E0289F900162
:101920001124929FA001939F500D112470E0CA01D1
:101930000E9483306038710540F46115710519F417
:1019400006C065E070E0862F08958FE7089581E076
:1019500008958091B10280FF08C06091610170E03C
:10196000759567957595679521C081FF06C0609153
:10197000610170E07595679519C082FF04C06091A0
:10198000610170E010C09091AF02992399F06091CD
:1019900060019617A0F780916101899FC001112411
:1019A00070E00E9483306038710540F46115710564
:1019B00019F406C061E070E0862F08958FE708955E
:1019C00081E008958D3E21F40E94600C819504C051
:1019D0008E3E29F40E94600C8093B50208958F3EDC
:1019E00021F40E94600C819504C0803F29F40E947C
:1019F000600C8093B4020895893F19F40E94A90CE9
:101A000005C08A3F31F40E94A90C81958093B602EB
:101A100008958B3F21F40E94A90C819504C08C3F4E
:101A200029F40E94A90C8093B70208959FE0980FB3
:101A3000983078F421E030E0A90102C0440F551F2E
:101A40009A95E2F7CA019091B302892B8093B30271
:101A500008958D3F21F48091B10281600BC08E3FCB
:101A600021F48091B102826005C08F3F29F48091FA
:101A7000B10284608093B10208958D3E39F4909153
:101A8000B50297FF35C01092B50259C08E3E29F4B9
:101A90009091B5021916BCF32BC09091B4028F3E01
:101AA00029F497FF25C01092B40249C0803F19F471
:101AB0001916CCF31DC09091B602893F29F419166E
:101AC000BCF41092B6023BC08A3F19F497FF10C0D5
:101AD000F8CF8B3F39F49091B70297FF09C010926D
:101AE000B7022DC08C3F21F49091B7021916BCF3B8
:101AF0009FE0980F983080F421E030E0A90102C007
:101B0000440F551F9A95E2F7CA0180959091B30250
:101B100089238093B30213C08D3F21F48091B102D9
:101B20008E7F0BC08E3F21F48091B1028D7F05C066
:101B30008F3F29F48091B1028B7F8093B102809115
:101B4000B402811106C08091B502811102C01092C9
:101B5000B0028091B602811106C08091B702811156
:101B600002C01092AF0208950E944B292091B40246
:101B7000211104C02091B502222321F09093AE02DE
:101B80008093AD022091B602211104C02091B702CA
:101B9000222321F09093AC028093AB0282EB92E07F
:101BA0000C94831DEF92FF920F931F93CF93DF93BB
:101BB00000D000D000D0CDB7DEB786E0E2EBF2E097
:101BC000DE01119601900D928A95E1F7E090B40242
:101BD000F090B5020091B6021091B7021092B402D3
:101BE0001092B5021092B6021092B702E11003C033
:101BF000FF2009F45DC08091AD029091AE020E9479
:101C00006329AC019091B002992339F020916601CB
:101C100030E02417350758F04BC0209167018AE067
:101C2000289F900111242417350718F041C09F3FC9
:101C300019F09F5F9093B002EE2061F00E94600C5B
:101C40001E1414F09FEF01C091E0989F902D112475
:101C50009093B402FF2061F00E94600C1F1414F0F6
:101C60009FEF01C091E0989F902D11249093B502B1
:101C70003091B4023323E1F02091B5022223C1F068
:101C800045EB3403C0011124992319F09093B40259
:101C900003C081E08093B40235EB2303C00111241B
:101CA000992319F09093B50203C081E08093B502A7
:101CB000011103C0112309F45DC08091AB02909122
:101CC000AC020E946329AC019091AF02992339F0D4
:101CD0002091620130E02417350758F04BC0209165
:101CE00063018AE0289F900111242417350718F01A
:101CF00041C09F3F19F09F5F9093AF02002361F0B6
:101D00000E94A90C101614F09FEF01C091E0989F5B
:101D1000902D11249093B602112361F00E94A90C1A
:101D2000111614F09FEF01C091E0989F902D11249F
:101D30009093B7023091B6023323E1F02091B702BD
:101D40002223C1F045EB3403C0011124992319F07B
:101D50009093B60203C081E08093B60235EB230373
:101D6000C0011124992319F09093B70203C081E0B8
:101D70008093B7028091B40281110BC08091B502AB
:101D8000811107C08091B602811103C08091B70212
:101D900081110E94B40DEB82FC820D831E8386E0CC
:101DA000FE013196A2EBB2E001900D928A95E1F727
:101DB00026960FB6F894DEBF0FBECDBFDF91CF9150
:101DC0001F910F91FF90EF900895E2EBF2E086E013
:101DD000DF011D928A95E9F71092B0021092AF02CE
:101DE0001092B1020895EF92FF920F931F93CF9339
:101DF000DF938B01682F11110AC0442329F0E82FCB
:101E0000F0E0EA50F74F6491762F862F75C0212FAE
:101E100030E0E82FF0E0442321F0EA50F74FE4915E
:101E2000F0E046E0049FC0011124CFEFD0E0BE01F6
:101E30000E946F304BEA4603C001479F900D11246A
:101E4000800F911D800F911D982F990F890FAE0162
:101E5000421B530B4E9FD0014F9FB00D5E9FB00DA4
:101E600011249B2F189FA0011124452F55278E0167
:101E7000041B150B0E9FA0010F9F500D1E9F500DB0
:101E800011247E01E81AF108E29E8001E39E100D04
:101E9000F29E100D1124212F3327C21BD30BCE9F8E
:101EA0009001CF9F300DDE9F300D112462307105FF
:101EB000A9F048F46115710569F061307105C9F444
:101EC0008B2F752F0DC06430710581F058F066308E
:101ED000710579F47E2F8B2F932F0DC0832F7B2FCD
:101EE0009E2F09C08E2F7B2F952F05C08E2F732F0D
:101EF00002C07E2F852F692FDF91CF911F910F9107
:101F0000FF90EF90089541E00E94F30E0895089528
:101F10000E94830F0895CF93DF93762FE901682FF6
:101F2000842F0E94880F798368838A83DF91CF9101
:101F30000895493708F048E70C948B0F809103040B
:101F4000282F269530E02115310519F48170826023
:101F500005C02B32310524F0817084658093030421
:101F600080910604893718F088E780930604089565
:101F700088E090E00C945834CF92DF92EF92FF9279
:101F80006B017C010E949E0FB701A60188E090E0E2
:101F9000FF90EF90DF90CF900C947634E3E0F4E084
:101FA00083E0808311828FEF828388E783831482AA
:101FB000ACE4B3E012968C911297836012968C93E6
:101FC00060817181828193810C94BC0F80910304A4
:101FD00080FF02C08695089580E0089590910704DF
:101FE000933018F49F5F90930704882351F0609119
:101FF00003047091040480910504909106040C94EC
:10200000BC0F089581E00C94EE0F90910704992382
:1020100019F0915090930704882351F060910304C4
:102020007091040480910504909106040C94BC0FF7
:10203000089581E00C94051070E00C941D176091D8
:102040006C018091030480FF0AC080916B0123E042
:10205000829FC0011124885F9B4F0C941C108091BB
:102060006D0190916E01891780F7E82FF0E09F01D4
:10207000220F331FE20FF31FE85FFB4F1182108224
:1020800012828F5FF0CF9091030490FF16C0909161
:102090006D0120916E01921770F4E92FF0E0DF01DD
:1020A000AA0FBB1FEA0FFB1FE85FFB4F8183608312
:1020B00042839F5FF0CF0C941F100895CF93DF935E
:1020C00000D01F92CDB7DEB79091030490FF0AC0F5
:1020D0009E012F5F3F4F0E94990F4B8169818A813A
:1020E0000E9443100F900F900F90DF91CF910895B1
:1020F000CF93DF93EC01EC81F0E0EF50F84F449187
:10210000E3E0F4E0628181810E945E108C818F5F48
:102110008C83DF91CF910895CF93DF93EC01E3E0BF
:10212000F4E0438162818C810E945E108C818F5F1C
:102130008C83DF91CF9108950F931F93CF93DF93FB
:1021400000D01F92CDB7DEB78C018091B80281110B
:102150000AC09E012F5F3F4F48E76FEF0E94990F23
:102160008A818093B802F8018481813051F028F08F
:10217000823061F44091B8020AC08091B80240E018
:1021800007C06091B80240E080E003C040E080E01A
:1021900060E00E944310F801848190E0019663E0C2
:1021A00070E00E94833084830F900F900F90DF9136
:1021B000CF911F910F910895AF92BF92CF92DF926E
:1021C000EF92FF920F931F93CF93DF9300D01F9254
:1021D000CDB7DEB7182FF62E042FE22E9091030410
:1021E00090FF7EC0E92FE695AE2FB0E0A45DBD4F15
:1021F0008C9180934C039E7F923061F49E012F5FFF
:102200003F4F812F0E94990F4B8169818A810E94E3
:10221000431043C0823019F4009106043EC086305A
:1022200019F41091040439C08930D9F38931A9F522
:10223000E9518E2F8170D82EE695F0E0EF50F74FE0
:10224000A590B490C12CBB2460916F01C61618F5FF
:102250002C2D30E0A29EC001A39E900DB29E900D49
:10226000112470E00E946F30812FD11002C0860FC0
:1022700001C0861B90916D01290F311DA901440FEA
:10228000551F240F351F285F3B4F402F6F2D0E9495
:10229000990FC394D9CF0E941F1080910404181382
:1022A00008C080910504F81204C080910604081744
:1022B00029F080914E03826080934E0310930404B2
:1022C000F092050400930604EE2051F0609103049F
:1022D0007091040480910504909106040E94BC0F43
:1022E0000F900F900F90DF91CF911F910F91FF9062
:1022F000EF90DF90CF90BF90AF900895E3E0F4E0CF
:102300009181282F438162818AE0890F0C94DC102F
:1023100081E00C947E11E3E0F4E09181282F438169
:10232000628186EF890F0C94DC1081E00C948B1194
:10233000E3E0F4E0628121E1620F08F46FEF282FFF
:10234000438181810C94DC1081E00C949811E3E0CE
:10235000F4E0628121E1621B08F460E0282F4381F0
:1023600081810C94DC1081E00C94A711E3E0F4E08F
:10237000438121E1420F08F44FEF282F62818181D0
:102380000C94DC1081E00C94B611E3E0F4E043819E
:1023900021E1421B08F440E0282F628181810C94E6
:1023A000DC1081E00C94C51120E00C94DC10FF924D
:1023B0000F931F93CF93DF93EC01F12C0FEF10E0FD
:1023C00060916F01F616F0F480916D012F2D30E0D1
:1023D000280F311DC901880F991F280F391F285F49
:1023E0003B4F70E0C8010E948330962F8C81409152
:1023F000060460910504F99E800D11240E94990F36
:10240000F394DECF0E941F109A818C8190FF02C04E
:102410008F5F01C081508C83DF91CF911F910F910D
:10242000FF9008958F929F92AF92BF92CF92DF92CA
:10243000EF92FF920F931F93CF93DF93EC018A816A
:1024400080FF03C0BB24BA9402C0BB24B3948C8128
:1024500081110DC081E0B81206C080916F018150DA
:102460008093BA0202C01092BA0281E08C83A12C40
:102470004BE1942E80916F01A81608F044C0809122
:102480006D01CA2CD12C8601080F111DC801880FBF
:10249000991F080F191F085F1B4FF8011182108246
:1024A000128234E0E32EF12C812C8091BA02880D47
:1024B0008C312CF0692D0E946130892F05C087FF77
:1024C00003C090916F01890F082E000C990BC8165C
:1024D000D90691F4809106048E9DA0018F9D500D28
:1024E0001124559547955595479598016091050498
:1024F000809104040E94990F8B0CF1E0EF1AF1080F
:10250000A1F6A394B7CF0E941F108091BA0291E068
:10251000B9120EC0811107C080916F018150809364
:10252000BA021C820FC081508093BA02BC820AC0DA
:1025300090E0019660916F0170E00E94833080937B
:10254000BA028C83DF91CF911F910F91FF90EF9092
:10255000DF90CF90BF90AF909F908F9008951F9382
:10256000CF93DF93EC018C81811109C081E08C83D2
:102570001092B90292E090936A0180936901809170
:102580006D0190916E01891770F4E82FF0E09F01C2
:10259000220F331FE20FF31FE85FFB4F11821082FF
:1025A00012828F5FF0CF10E060916F011617C0F5B7
:1025B000E12FF0E070E0CF010E94833020916D01A7
:1025C000820F2091B902022E000C330B90E0E2172B
:1025D000F307CCF020916A01022E000C330B2E176A
:1025E0003F078CF09C01220F331F820F931F9C0129
:1025F000285F3B4F409106046091050480910404DC
:102600000E94990F0BC0FC01EE0FFF1F8E0F9F1F42
:10261000FC01E85FFB4F1182108212821F5FC4CF62
:102620000E941F10809169012091B902280F209308
:10263000B90290916A01980F90936A0119165CF49F
:10264000022E000C330B40916F0150E041505109B4
:102650002417350734F0819580936901813009F49E
:102660001C82DF91CF911F9108958F929F92AF921C
:10267000BF92CF92DF92EF92FF920F931F93CF936F
:10268000DF938C01FC014481C42FD0E09E01DE0168
:102690000E94C7309B01AC010E94DD306B017C01C0
:1026A000E0E2F0E0EC1BFD0BA5E5B0E09B01AC0126
:1026B0000E94DD304B015C019F01DF010E94BF30B1
:1026C0009B01AC010E94E8309B01AC012C0D3D1D2B
:1026D0004E1D5F1DC501B4010E949730C22FD22F3D
:1026E0002A3228F4F3E02F9F900111240DC025E534
:1026F00030E02C1B3109C901880F991F280F391FA1
:1027000037FF02C02F5F3F4F35952795C22FC095E9
:10271000F12C85E5E82EED1A80916F01F816C8F4CA
:10272000F1FC02C08E2D01C08D2F90916D012F2DD7
:1027300030E0290F311DA901440F551F240F351F0B
:10274000285F3B4F4C2F609105040E94990FF39432
:10275000E3CF0E941F10F8018481811102C091E033
:1027600003C0803219F49FEF909368019091680143
:10277000890FF8018483DF91CF911F910F91FF9012
:10278000EF90DF90CF90BF90AF909F908F90089583
:102790000F931F93CF93DF93EC0100E010E0809143
:1027A0006F01282F30E00217130724F590916D0177
:1027B0009801290F311DA901440F551F240F351F02
:1027C000285F3B4F869590E04C81081719071CF451
:1027D000442331F002C0411103C04091060401C0FE
:1027E00040E060910504809104040E94990F0F5FFE
:1027F0001F4FD5CF0E941F108C8190E001968170F1
:1028000099278C83DF91CF911F910F9108957F922B
:102810008F929F92AF92BF92CF92DF92EF92FF92F0
:102820000F931F93CF93DF93FC018280748081E02C
:102830008483E1EFF7E09490E0E7F8E0E491A12CE5
:10284000F5E0BF2ECC24CA94D12CE9190E2F10E04C
:1028500080916F01A81608F0A2C0EA2CF12C22E0AA
:10286000281568F0BE9CF001BF9CF00D1124E254C5
:10287000FD4F809104048083809105048183711051
:102880000AC0BE9CF001BF9CF00D1124E254FD4F24
:10289000138212826AC0BE9CE001BF9CD00D11243D
:1028A000C254DD4F8B818823F9F081508B832FEF49
:1028B000829FC00111246C8170E00E946F30FB0187
:1028C000FF27EF50F84F8491E82FE9192FEFE29F8F
:1028D000C0011124B8010E946F3080910604689FE6
:1028E000B00111247A8341C00E943C31209106043A
:1028F0002695215830E0A901440F551F322F222779
:10290000240F351F232F33278217930774F582E096
:10291000881588F40E943C31B6010E948330888378
:102920000E943C31209105042695622F70E00E94A0
:102930008330280F2983BE9CF001BF9CF00D112429
:10294000E254FD4F128280910604843120F0893CCC
:1029500018F088EC01C084E1BE9CF001BF9CF00D32
:102960001124E254FD4F8483838380916D0197018C
:10297000280F311DC901880F991F280F391F285FA3
:102980003B4FBE9CF001BF9CF00D1124E254FD4F63
:102990004281618180810E94990FA39459CFDF9178
:1029A000CF911F910F91FF90EF90DF90CF90BF904C
:1029B000AF909F908F907F900C941F1060910304B4
:1029C000669570E04BE050E080E791E00E944C316A
:1029D000892B19F481E080934D030E944B29909339
:1029E00046038093450380914E03846080934E0399
:1029F0000895ECE4F3E0118282818460828308957B
:102A00009091030490FF3AC09170811102C09260CE
:102A100006C08B3210F0946502C0880F982B9093FB
:102A2000030480914E03816080934E03662351F02E
:102A30006091030470910404809105049091060450
:102A40000E94BC0F60910304669570E04BE050E07B
:102A500080E791E00E944C31892B19F00E94F91413
:102A600002C00E94DE1481E0809348034091060476
:102A700060910504809104040C94D4110895682F8A
:102A800090910304969581E0890F8B3208F081E0E4
:102A90000C94001581E00C943F15682F909103046D
:102AA00096958FEF890F09F48AE20C94001581E066
:102AB0000C944D1561E00C940015E3E0F4E0808186
:102AC0008160808386950C945A1560E00C94001503
:102AD000E3E0F4E080818E7F808360817181828178
:102AE00093810E94BC0F0E94F914ECE4F3E0828110
:102AF000816082832FEF80E792E0215080409040F8
:102B0000E1F700C000000C941F108091030480FDC9
:102B10000C9468150C945D1580914B03811133C0A2
:102B20000E94C427811104C00E9470280E94CE0F09
:102B30000E94B80F6093030470930404809305040B
:102B40009093060480914E03836080934E036E7FC2
:102B500061F40E94CE0F0E94B80F6093030470933B
:102B6000040480930504909306040E949E0F0E9423
:102B7000F9148091030480FF03C086950E946515B7
:102B800081E080934B030895EF92FF920F931F9380
:102B9000CF93DF9380914D03882309F4BBC08091CC
:102BA0004C03E0910304E695E81BE0934703823071
:102BB00049F4F0E0E351F84FE491CE2FD0E008E77C
:102BC00010E159C0863049F4F0E0E651F84FE49145
:102BD000CE2FD0E00CE810E14EC0893051F4E695DC
:102BE000F0E0E951F84FE491CE2FD0E007ED11E18C
:102BF00042C08F3051F4E695F0E0EC51F84FE4918B
:102C0000CE2FD0E002E112E136C0853149F4F0E088
:102C1000EF51F84FE491CE2FD0E00FEA12E12BC034
:102C20008831D9F0833239F4EFEDF7E0C591D491D2
:102C30000CE910E120C08432A9F08532C1F48E2F56
:102C400063E00E945530E92FF0E0E452F84FE49140
:102C5000CE2FD0E007E014E10EC0C8E2D0E005E3DB
:102C600013E109C0C4EFD1E008EC13E104C0C0EDEA
:102C7000D7E007E81FE080914803882361F01092B5
:102C800048030E944B29909346038093450310927A
:102C90004A03109249030E944B29E0914503F091A9
:102CA00046039C012E1B3F0B2F3F3F4798F5209179
:102CB000BD022223B1F01092BD022091BB023091DF
:102CC000BC02821B930B8F3F9F4758F4205D3A480C
:102CD0003093BC022093BB0280914E0388608093A6
:102CE0004E03E0904903F0904A03EC0FFD1FF09370
:102CF0004603E093450385E493E0F801099580914C
:102D0000490390914A03892B29F4EF2819F081E0B7
:102D10008093BD02DF91CF911F910F91FF90EF90B3
:102D20000895882311F0FA0101C0FB010994CF93A3
:102D3000DF93C82FD62F0E94E60F8C1740F00E9419
:102D4000E60F8D1720F4DF91CF910C944A158C2F4C
:102D5000DF91CF910C945A150F931F93CF93FB01E2
:102D6000C281CC2309F463C08C010E941E278272A9
:102D7000F801E35CFC45E431F10508F059C0EA5A7A
:102D8000FF4F0C94B9300E94851506C047E555E108
:102D90006AE475E10E949116C0E04AC04AE455E138
:102DA00067E575E1F7CF45E951E168E871E1F2CFF8
:102DB00048E851E165E971E1EDCF43EB51E164EAA7
:102DC00071E1E8CF44EA51E163EB71E1E3CF41ED1A
:102DD00051E162EC71E1DECF42EC51E161ED71E174
:102DE000D9CF49E150E162E070E1D4CF42E050E157
:102DF00069E170E1CFCF81E017C065E082E010C0EB
:102E000068E086E00DC06EE089E00AC064E18FE012
:102E100007C067E185E104C088E106C062E289E19C
:102E20000E949716B9CF83E20E945A15B5CFC1E030
:102E30008C2FCF911F910F910895539A2BB1277F1B
:102E40003BB138604FB7F894FC01CB01880F991F54
:102E5000680F791F6E0F7F1FE617F70789F08191C2
:102E600098E03BB9000000C087FF2BB9880F000035
:102E700000C000C000C02BB900C09A9591F7ECCFFC
:102E80004FBF8FE594E00197F1F700C0000008956F
:102E90000F931F93CF93DF93C42FD22FFC01828116
:102EA0008823C9F0409351030E944B29909350030B
:102EB00080934F0380E28C0F883008F057C0C770B2
:102EC00081E001C0880FCA95EAF7DF91CF911F9189
:102ED0000F910C94691F80915103481330C0809169
:102EE0004F03909150030E9463298436910538F571
:102EF00010E21D0FCD17B9F080E28C0F883040F43E
:102F0000C77081E001C0880FCA95EAF70E94701F60
:102F1000183028F581E09D2F977001C0880F9A9591
:102F2000EAF70E94691F802F0E94601F1830F0F49A
:102F3000D77081E001C0880FDA95EAF70AC080E215
:102F40008C0F883098F4C77081E001C0880FCA9553
:102F5000EAF7DF91CF911F910F910C94701F802F92
:102F6000DF91CF911F910F910C94601FDF91CF9152
:102F70001F910F9108950F939C01CB01243F4CE5C5
:102F8000340731F188F4293DFCE53F07D9F02A3DAB
:102F90004CE5340779F1283D3C45A9F506E221EEE0
:102FA00041EE68ED7CE52BC0263FFCE53F07E1F0F4
:102FB000A8F0273F3C4539F507E225EE46EE67EFDE
:102FC0007CE51DC007E225EE45EE69ED7CE517C006
:102FD00006E221EE40EE64EF7CE511C007E225EE4B
:102FE00044EE65EF7CE50BC006E221EE42EE66EFB3
:102FF0007CE505C008E221E045EE6AED7CE50E9433
:10300000481780E008C0FC018281882319F01092E3
:10301000510301C081E00F910895CF93DF93EC013C
:10302000FB018281882309F41FC1C230FCE5DF0760
:1030300008F41BC1C6319CE5D90738F09E012B5F0F
:103040003C452930310508F010C10E94DC279093DF
:10305000C5048093C404C031ECE5DE0709F4C3C0A5
:1030600008F041C0C8308CE5D80709F49AC0F0F4E4
:10307000C430ECE5DE0709F487C068F4C2308CE5A3
:10308000D80709F477C0C330DC4509F0E3C080916C
:10309000C404826076C0C630ECE5DE0709F46EC079
:1030A00008F07BC08091C40488606BC0CC308CE594
:1030B000D80709F485C068F4CA30ECE5DE0709F4E6
:1030C00074C008F079C00E94C7218091C404806850
:1030D00058C0CE308CE5D80709F476C008F07FC020
:1030E0008091C4048BC0CC3FECE5DE0709F44FC0EF
:1030F00018F5C3318CE5D80709F47DC078F4C131E7
:10310000ECE5DE0709F473C0C231DC4509F0A2C06A
:103110000E94C7218091C4048F7733C0C5318CE5EC
:10312000D80709F472C008F486C0CB3FDC4509F02B
:1031300091C08091C5043EC0C115FDE5DF0709F4CB
:103140005FC058F4CE3F9CE5D90709F444C008F4A9
:103150003FC08091C50482602DC0C230FDE5DF070D
:1031600009F475C008F45DC0C330DD4509F072C0D4
:1031700080E06EC08091C404816003C08091C4046B
:1031800080618093C40466C08091C40411C08091A2
:10319000C50482608093C5045DC08091C4048062D0
:1031A000F0CF8091C4048064ECCF8091C404886027
:1031B0008460E7CF8160EECF8091C4048E7FE1CF41
:1031C0008091C4048D7FDDCF8091C404877FD9CFE7
:1031D0008091C50418C08091C5048D7FDBCF80919C
:1031E000C4048F7ECECF8091C4048F7DCACF8091DE
:1031F000C4048F7BC6CF8091C404877F8B7FC1CFEF
:103200008091C5048D7F8E7FC5CF8091C40482FBE1
:10321000222720F991E0922790FB82F990FB83F915
:10322000B0CF8091C504982F909591708E7F892B97
:1032300090FB81F9AFCF0E94C7218091C40487FB26
:10324000222720F991E0922790FB87F99ACF81E01D
:103250000E9472288091C4049091C5040E94ED27B9
:103260000E94C72180E001C081E0DF91CF910895E5
:10327000CF93DF9386319C4541F5EB010E941E27D9
:10328000982F8A8120917C0130917D01882379F0EB
:103290009A7A81E009F480E080935203911102C090
:1032A00069E201C065E3C9010E94B9280AC08091A2
:1032B0005203811102C069E201C065E3C9010E94A5
:1032C000BB280E945F2780E001C081E0DF91CF91A1
:1032D0000895CF93C82F88E70E94001B81110AC070
:1032E00080E00E94331B811105C08C2F0E94331B8C
:1032F000C1E08111C0E00E94271B8C2FCF9108955F
:103300001F93CF93DF93162FEC01112349F0FE0199
:1033100084910E9469192196882319F01150F5CFE4
:1033200081E0DF91CF911F9108958EEA0C94691985
:103330008FEA0C9469190F931F93CF93DF938C013D
:103340000C5A1F4FD801ED91FC91119760832D917C
:103350003C9111972F5F3F4F2D933C93281B390BC6
:1033600024353105B9F4EC01BC016B5E7F4F4FE3AE
:1033700050E00E946631CE01CF96F80191838083A0
:1033800045E150E060E270E0DF91CF911F910F9135
:103390000C947831DF91CF911F910F9108951F9375
:1033A000CF93DF93FC01EA5AFF4F21E020836A307C
:1033B00099F4EC013297808191818C1B9D0B65E122
:1033C00070E00E948330182F153158F460E2CE016E
:1033D0000E949B191F5FF8CFDF91CF911F910C9432
:1033E0009B19DF91CF911F9108950F931F93CF9356
:1033F000DF938C01EB016991662321F0C8010E94E3
:10340000CF19F9CFDF91CF911F910F910895CF93ED
:10341000DF93EC010E94F51967E572E0CE01DF91C0
:10342000CF910C94F519CF93DF93EC0144E550E074
:1034300060E270E00E947831FE01EC5AFF4FD183C8
:10344000C083CA5ADF4F81E08883DF91CF9108950E
:103450009F92AF92BF92CF92DF92EF92FF920F9323
:103460001F93CF93DF93EC010E944B299093540359
:10347000809353030E94981967E086EF99E00E94B9
:1034800080198823B1F188E70E94001B811131C0A7
:1034900080E40E94331B81112CC06E0184E0982EC1
:1034A00000E010E0F601E00FF11FA08086E0A89E8A
:1034B00050011124E12CF12CF501EE0DFF1DE45E0D
:1034C000FE4F84910E94331B8FEFE81AF80A86E0C2
:1034D000E816F10489F70F5F1F4F0531110511F749
:1034E0009A9485E1C80ED11C9110DACFCA5ADF4FE9
:1034F0001882DF91CF911F910F91FF90EF90DF9095
:10350000CF90BF90AF909F900C94271B89E594E0DB
:103510000C94281ACF93DF93C82F0E94FA1A6DE0FB
:1035200089E19AE00E948019811102C080E038C0D0
:1035300063E0CC2319F086E19AE002C083E19AE0CF
:103540000E948019882391F36FE084E09AE00E9442
:103550008019882359F389E594E00E94131A67E0E3
:103560008DEF99E00E9480198823A9F088E70E94D6
:10357000001B811110C080E40E94331B81110BC01D
:10358000D4E0C0E880E00E94331BC150D9F7D1508D
:10359000C1F71092AF040E94271B0E94861A81E097
:1035A000DF91CF9108950E9446098091AF04811167
:1035B00004C080917B01882321F00E94861A10921A
:1035C0007B0180915303909154030E9463298136BB
:1035D0009A4E10F00C949519089581E080937B0128
:1035E000089583E390E02091BC0027FD02C001977D
:1035F000D1F708951092B9008CE08093B800089537
:10360000CF93C82F84EA8093BC000E94F11A809166
:10361000B900887F883039F08091B900887F803187
:1036200011F081E012C0C093BB0084E88093BC001D
:103630000E94F11A8091B900887F883129F0809129
:10364000B900887F803469F780E0CF91089584E9DC
:103650008093BC0083E390E02091BC0024FD02C075
:103660000197D1F708958093BB0084E88093BC0054
:103670000E94F11A9091B900987F81E0983209F484
:1036800080E008951F920F920FB60F9211248F932E
:103690009F93EF93FF938091B900887F803869F002
:1036A00038F48823C9F18036C9F51092550336C025
:1036B000883A09F1883BF9F031C0809155038111B6
:1036C00011C08091BB0080935603809156038031D6
:1036D00020F01092560380E001C081E091E09093C9
:1036E00055031DC0E0915603F0E08091BB00E0550A
:1036F000FB4F808308C0E0915603F0E0E055FB4F9C
:1037000080818093BB008091560390E001968F707A
:1037100099278093560302C01092BC0081E09091DB
:10372000BC008295880F880F807C9568892B8093D8
:10373000BC00FF91EF919F918F910F900FBE0F9062
:103740001F9018958EE14A9B02C08150E1F74A9B79
:10375000FECF08955A9880E28A95F1F75A9A089513
:10376000FC012AE02A95F1F790E020E080E031E0CA
:10377000261779F040E14A95F1F7880F4A9B02C07D
:103780008160932700C0000040E14A95F1F72F5F68
:10379000EFCF20E12A95F1F729B100C0000030E118
:1037A0003A95F1F722FB222720F992272081920FE8
:1037B00090830895EF92FF920F931F93CF93DF931F
:1037C0001F92CDB7DEB719828C017C01E60EF11C89
:1037D0000E151F0559F00E94A21B68E0CE0101964C
:1037E0000E94B01BF80181938F01F2CF81E0998193
:1037F000911180E00F90DF91CF911F910F91FF9079
:10380000EF90089590935903809358036093570362
:10381000529A5A9A0895909359038093580360934B
:10382000570352985A9AEA9AE9E6F0E080818F7C31
:1038300080830895615091E001C0990F6A95EAF77D
:1038400020E031E0992361F0492F482319F05A9A7A
:10385000232701C05A9840E24A95F1F79695F2CF96
:10386000222311F05A9A01C05A9880E28A95F1F702
:103870005A980895FF920F931F93CF93DF93EC0113
:103880008C01060F111DC017D10741F0F9900E945D
:10389000AA1B68E08F2D0E941A1CF5CFDF91CF91F3
:1038A0001F910F91FF9008951F920F920FB60F92E4
:1038B00011240F931F932F933F934F935F936F9315
:1038C0007F938F939F93AF93BF93EF93FF93CF9388
:1038D000DF931F92CDB7DEB719820E94A21B67E06B
:1038E000CE0101960E94B01B382F3695369536953D
:1038F000932F96959570232F2570920F292F237063
:10390000969596958770920F891348C08981811189
:1039100045C080915703831708F440C080E18A9521
:10392000F1F75A9A529AA2E0AA95F1F700C00091D5
:10393000580310915903B8E03B9F000D111D11244D
:103940005A98F8016581662321F0868197810E944B
:103950003A1C0E94AA1BF0E1FA95F1F75A98529886
:103960005A9A80E18A95F1F7D80112966C911297D4
:10397000662369F013968D919C9114970E94DA1B2F
:10398000D801ED91FC91811105C082E004C0D801FD
:10399000ED91FC9188E080830E94A21B0F90DF9143
:1039A000CF91FF91EF91BF91AF919F918F917F91B7
:1039B0006F915F914F913F912F911F910F910F90B8
:1039C0000FBE0F901F9018950F931F93CF93DF9307
:1039D0002091570330E0281739070CF471C09C017F
:1039E00093E0220F331F9A95E1F7C0915803D091CD
:1039F0005903C20FD31FF894529A5A9845E04A953A
:103A0000F1F70000982F969595708570890F982F83
:103A1000937086958695890F8901082B0E94AA1BB1
:103A200084E08A95F1F700C067E0802F0E941A1C9D
:103A300040E14A95F1F752985A9A4A9902C000C05B
:103A4000FCCF87E090E04A9B0EC0019751F4529A58
:103A50005A9AE881F98181E08083789481E090E04E
:103A600031C000C0F0CF6D81662381F08E819F81CF
:103A70000E94DA1B81110AC0529A5A9AE881F98190
:103A800082E08083789482E090E01CC00E94A21BB8
:103A900080E28A95F1F75A98529A40E14A95F1F7F7
:103AA0006A81662321F08B819C810E943A1C0E94CE
:103AB000AA1BE881F9811082789480E090E002C02E
:103AC00084E090E0DF91CF911F910F910895909342
:103AD0005F0380935E030895E0915E03F0915F03BE
:103AE000309721F00190F081E02D099480E0089555
:103AF000E0915E03F0915F03309721F00280F38143
:103B0000E02D09940895E0915E03F0915F033097F2
:103B100039F022E0DC012C930480F581E02D09943A
:103B2000089520915C0330915D032817390771F0E7
:103B300090935D0380935C03E0915E03F0915F03DB
:103B4000309721F00680F781E02D099408952091A7
:103B50005A0330915B032817390771F090935B0388
:103B600080935A03E0915E03F0915F03309721F058
:103B70000084F185E02D099408950E9457296093EF
:103B80006D0370936E0380936F0390937003609343
:103B9000690370936A0380936B0390936C03089599
:103BA00085B7806885BF85B7806885BF089581E047
:103BB00008950C94D71D08950C94DB1D0C94DB1D07
:103BC0000C94DE1D0C94DB1D0C94E21D0C94DB1D8B
:103BD0000E94D01D82EC97E20E94A9290E94E61D56
:103BE0000C94E41D0E9442290E940B060E94AE29FB
:103BF0000E948C150C94E01D9F92AF92BF92CF92C1
:103C0000DF92EF92FF920F931F93CF93DF93CDB785
:103C1000DEB72A970FB6F894DEBF0FBECDBF0E9465
:103C2000DC1D0E94DB1D0E942B0781110E94BD1D1F
:103C300081E6A82E83E0B82E00E010E0902E802FC1
:103C40000E94A107D82EF501C1905F01C826B1F4EA
:103C50000F5F1F4F0830110589F78FEF89838A8323
:103C60001B820E944B298160782F9D838C83498120
:103C70005A816B818D810E94A01E2FC08091DD032F
:103C800081FD0E94A707E12CFF24F3948C2D8F2146
:103C9000F1F00E94D91D882399F0EE829F82DF20E7
:103CA00081E009F480E088870E944B298160782FA9
:103CB0009A8789874E815F8168858A850E94A01EC8
:103CC000F801EF59FC4F8081F826F08206C0E3949A
:103CD000FF0CF6E0EF12DACFBBCF0E94C4150E94B2
:103CE000D20D0E946C1D909160038917B9F00E945B
:103CF0006C1D809360032A960FB6F894DEBF0FBE4A
:103D0000CDBFDF91CF911F910F91FF90EF90DF908A
:103D1000CF90BF90AF909F900C94900A2A960FB6C8
:103D2000F894DEBF0FBECDBFDF91CF911F910F91F1
:103D3000FF90EF90DF90CF90BF90AF909F9008954D
:103D4000DF92EF92FF920F931F93CF93DF93CDB744
:103D5000DEB72B970FB6F894DEBF0FBECDBFF42EA3
:103D6000052F162FE72ED82E61110E943E27FE0147
:103D7000319686E0DF011D928A95E9F77E2D4F2D61
:103D8000502F612F8D2D9E810E9466242B960FB699
:103D9000F894DEBF0FBECDBFDF91CF911F910F9181
:103DA000FF90EF90DF900895FC01808191810E9447
:103DB000DF260895CF938823B1F1C82F8CEF8C0FA5
:103DC000813AD0F46C2F80917C0190917D010E940A
:103DD0008328882349F06C2F80917C0190917D018C
:103DE0000E94BB280E945F276C2F80917C019091DC
:103DF0007D010E94B9280CC080E28C0F883058F4F5
:103E0000C77081E001C0880FCA95EAF70E94212798
:103E1000CF910C945F27CD3E30F08C2F0E94E20CA6
:103E2000CF910C94B40DCF910895882389F19CEF24
:103E3000980F913A40F4682F80917C0190917D0118
:103E40000E94BB280DC090E2980F983058F48770FC
:103E500091E001C0990F8A95EAF7892F0E942727E0
:103E60000C945F279BE5980F933020F480E090E05E
:103E70000C94911D98E5980F973120F480E090E024
:103E80000C94A71D8D3E20F00E943D0D0C94B40DA6
:103E900008951F93CF93DF93182FEB010E94DA1E32
:103EA000209741F08FE99FE00197F1F700C00000F3
:103EB0002197F6CF812FDF91CF911F910C94151F81
:103EC000893319F060E070E002C060E570E00C94A6
:103ED000491F882321F00E9421270C945F27089511
:103EE000882321F00E9427270C945F270895CF9202
:103EF000DF92EF92FF920F931F93CF93DF937C019A
:103F0000D62FC72FFC010281158112951F700E94C8
:103F10001727882399F0002389F08C2F807F803425
:103F200021F080E28D0F883048F082E00E94A927BE
:103F30000E94172791E0D82ED92601C0D12CCC2E73
:103F4000C2948FE0C8228C2D90E08C30910508F04F
:103F500098C1FC01E659FF4F0C94B9308C2F807F3B
:103F6000CF70882311F0C295C07F002399F0CC2335
:103F700009F473C180E28D0F883010F0D11104C0B4
:103F80008C2F0E94212703C08C2F0E9431270E9472
:103F90005F2763C18D2F0E94151FCC2309F471C1C7
:103FA00080E28D0F883010F0D11104C08C2F0E9458
:103FB000272703C08C2F0E9437270E945F2761C1EB
:103FC0008C2F807FCF70803211F0C295C07FDD23AF
:103FD00019F0D130C9F022C0002371F0112341F053
:103FE000113031F40E9444278C2B0E944C2749C188
:103FF0000E9444278C2B1DC0112319F0113009F4A5
:1040000040C10E94552725C0002321F0163008F03A
:1040100038C10EC0153008F034C11BC0002361F058
:10402000112331F0F701858180FF17C18F708583DF
:104030008C2F0E94691F25C1112359F0D93309F033
:104040001DC1FFEF07EE13E0F15000401040E1F713
:1040500013C18C2F0E94701F14C18D2F002319F0E3
:104060000E94E20C02C00E943D0D0E94B40D11C1DD
:104070008C2F837009F047C0011107C12D2F2295A5
:1040800026952770220F220F6D2F6F70862F90E0DC
:10409000A0E0B0E0022E04C0880F991FAA1FBB1F2A
:1040A0000A94D2F7D4FF10C04FE050E060E070E017
:1040B00004C0440F551F661F771F2A95D2F74095FD
:1040C00050956095709503C040E050E0BA01C695E8
:1040D000C695C3708A019B01082B192B2A2B3B2BF9
:1040E000C901B801C23049F058F4C13019F00E943A
:1040F0003A25CBC00E942825C8C00E944C25C5C0C7
:104100000E942625C2C0002319F08C2F817001C0A7
:104110008695882309F4B9C02D2F229526952770FE
:10412000220F220F6D2F6F70862F90E0A0E0B0E07D
:10413000022E04C0880F991FAA1FBB1F0A94D2F732
:10414000D4FF10C04FE050E060E070E004C0440FC6
:10415000551F661F771F2A95D2F740955095609599
:10416000709503C040E050E0BA01C695C695C37093
:104170008A019B01082B192B2A2B3B2BC901B80163
:10418000C23049F058F4C13019F00E941F267DC09A
:104190000E940D267AC00E94312677C00E946025B9
:1041A00074C0CF70002339F08C2F0E94A6258D2F6C
:1041B0000E94691F6AC08D2F0E94701F8C2F0E9461
:1041C000C72563C0D23F01F128F4D03F41F0D13F71
:1041D000A1F03FC0D33FF9F0D43F39F13AC00023FA
:1041E00041F0153008F04DC08C2F8F710E94EC25E6
:1041F00048C0163008F045C0F7CF002339F08C2FA7
:104200008F710E94A6253DC00023C9F38C2F8F71AA
:104210000E94C72536C0002329F08C2F8F710E9481
:1042200091252FC00E946C252CC0002349F0CF712E
:104230008C2F0E94A62563E08C2F0E94942721C01A
:1042400081E00E94A9271230E0F082E00E94A927B5
:1042500018C0002331F0112391F28D2F0E94DA1E35
:1042600010C0112399F2D93349F41FEF27EE33E040
:10427000115020403040E1F700C000008D2F0E9417
:10428000151F88EF8C0D843020F40E946C1D0E9455
:10429000900ADD20C9F00E94132780FD15C0F701A8
:1042A00012820E940D270E94A625C7010E94852127
:1042B0000E940D27DF91CF911F910F91FF90EF90FA
:1042C000DF90CF900C94C725DF91CF911F910F9174
:1042D000FF90EF90DF90CF9008950F931F93CF93AF
:1042E000DF93EC01688179818A810E94EA268C0142
:1042F0000E9443260E941425B801CE010E94771F18
:10430000DF91CF911F910F910895CF93DF93EC012F
:10431000988189812B813C81232B31F08F3F31F4AF
:1043200081E09F3F19F403C081E001C080E080FD7F
:1043300019C0CE010E94460A81110CC00E941727A5
:10434000882381F08A81882369F082E0DF91CF9110
:104350000C94A927CE010E946D21CE01DF91CF914F
:104360000C94210ADF91CF9108950E943E270E946C
:1043700041270E945F270E94E50E0C94B40D8091A6
:104380007C0190917D010E94BD280C94B5210E9472
:104390002E270C94BF21E92FE295EF704E2F50E0AD
:1043A000FA013297EE30F105B0F4EA58FF4F0C9461
:1043B000B930803F91F018F4883E68F40EC0843F15
:1043C00051F40BC0883E48F0813F29F406C093FBAE
:1043D000882780F9089580E0089581E008950E947B
:1043E000DF260E94CB210895CF93DF9300D000D029
:1043F0001F92CDB7DEB70F900F900F900F900F90D8
:10440000DF91CF910895CF93DF9300D000D000D0FB
:10441000CDB7DEB726960FB6F894DEBF0FBECDBF80
:10442000DF91CF9108951F93CF93DF93C0917203D3
:1044300016E080917303C81799F0D0E01C9FF0013B
:104440001D9FF00D1124EC58FC4F40815181628179
:104450007381848195810E9403222196C770E9CFE0
:10446000DF91CF911F9108954091A4035091A5032E
:104470006091A6037091A7038091A8039091A9036E
:104480000C9403220F931F93CF93DF938091A90382
:1044900082958F7009F05DC08091A603882309F48E
:1044A00058C080917203109173036091A4037091BE
:1044B000A503C091A703D091A80391E06F3F09F035
:1044C00090E0292F06E0811709F443C0209721F0DE
:1044D0007F3F21F030E003C031E001C0322F90E097
:1044E00030FD34C0089FF001099FF00D1124DF0159
:1044F000AC58BC4F11963C911197371327C03C9193
:10450000361324C012963C91129731111FC0139696
:104510004D915C9114974C1B5D0B44365105B0F4E2
:104520008091A9038F7080618093A903E758FC4FA5
:1045300080818F708061808384EA93E00E9485216E
:10454000DF91CF911F910F910C94132201968770E8
:10455000BACFDF91CF911F910F9108959F92AF92A3
:10456000BF92CF92DF92EF92FF920F931F93CF9360
:10457000DF93CDB7DEB761970FB6F894DEBF0FBEFD
:10458000CDBF8C0185E0F801DE011D9601900D92F2
:104590008A95E1F7F80140815181E2809091A4036E
:1045A0006091A5032091A7033091A803211531053F
:1045B00031F06F3F31F481E09F3F19F403C081E097
:1045C00001C080E0F82FF1709F2E80FD2CC1F80112
:1045D000A380B48084EAC82E83E0D82EF090A6038E
:1045E000F501E21BF30BFF2009F4EBC08091A90356
:1045F000E436F10508F0A7C0282F207F09F052C04B
:10460000561313C0491311C0FE2CE1100EC08F7059
:1046100080618093A9030E943422C6010E948521F3
:104620008091A903F80185833EC1AB2831F05F3F3B
:1046300031F481E04F3F19F403C081E001C080E014
:1046400080FD03C081E08E2502C080E090E0F82F5D
:10465000F170FF2E80FF1CC08091720320917303C4
:1046600036E0821709F4FDC090E0389FF001399FD1
:10467000F00D1124EC58FC4F6181561306C0608187
:10468000461303C06281E61203C001968770E9CF2A
:10469000FE2CEE2009F407C18091A903816080936C
:1046A000A90366C0561312C0491310C0E1100EC012
:1046B000F8018583C8010E94852186E0F801A4EAFB
:1046C000B3E001900D928A95E1F7C8C04D875E87EF
:1046D0008D859E850E94EF21882379F1EE2069F176
:1046E0002091A903822F82958F7090E0029774F039
:1046F0008091A4039091A50398878F831986BB8628
:10470000AA862C87CE0107960E94852186E0F801B3
:10471000A4EAB3E001900D928A95E1F70E9442224B
:104720000E9434220DC0561729F14D875E878D8572
:104730009E850E94EF2181112CC0C8010E94852115
:10474000FF24F394B0C0282F207F69F77A2DB98A0F
:10475000A88A6E2D89890E94F42184EA93E00E9440
:10476000852186E0F60111928A95E9F70E943422AC
:10477000F12C99C04913D9CFE110D7CFF801858327
:10478000C8010E94852186E0F60111928A95E9F719
:104790008AC0EE2091F22091A903822F82958F701A
:1047A00090E002970CF4B2CF8091A4039091A503FE
:1047B0009A8389831B82BD82AC822E83CE010196AF
:1047C000A3CFE436F10510F5FE2CEE2009F4B5CFA9
:1047D00056130BC0491309C086E0F801A4EAB3E000
:1047E00001900D928A95E1F75EC04D875E878D85B9
:1047F0009E850E94EF21811189CF8091A90381605C
:104800008093A903C8010E9485214DC07A2DB98AE1
:10481000A88A6E2D89890E94F42186E0F601119202
:104820008A95E9F71BC0EE2009F487CF4D875E8794
:104830008D859E850E94EF21F82E882309F47DCF77
:1048400086E0F801A4EAB3E001900D928A95E1F7C1
:1048500084EA93E00E94D41E0E9442220E943422E5
:1048600022C04D875E878D859E850E94DF26292F79
:1048700022952F70223028F49F7039F0811105C0E5
:104880000BC0243028F49F7049F4805E883020F0FB
:10489000C8010E9485219F2CF92C05C0F801958143
:1048A000907F99F7F9CF8F2D61960FB6F894DEBF00
:1048B0000FBECDBFDF91CF911F910F91FF90EF9071
:1048C000DF90CF90BF90AF909F9008951F93CF93AC
:1048D000DF93CDB7DEB72C970FB6F894DEBF0FBECF
:1048E000CDBF4F83588769877A878B879C87CE0196
:1048F00007960E94AE228823D1F09F8188852A8561
:104900003B85232B31F08F3F31F481E09F3F19F439
:1049100003C081E001C080E080FD47C04F81588521
:1049200069857A858B859C850E9403223EC086E03E
:10493000FE013796DE01119601900D928A95E1F7FE
:10494000FF81E8856A857B856115710531F0EF3F50
:1049500031F481E0FF3F19F403C081E001C080E041
:1049600080FD23C02091730330E0C9010196877058
:1049700099274091720350E084179507F1F1F9836C
:10498000EA837D836C8396E0929FD001939FB00D64
:104990001124AC58BC4FFE01319601900D929A95AE
:1049A000E1F7809373030E94132216E08091720353
:1049B00090917303891771F1189FC00111248C58CD
:1049C0009C4F0E94AE22882329F1E09172031E9F22
:1049D000F0011124EC58FC4F4081518162817381B8
:1049E000848195810E9403228091720390E0019658
:1049F0008770992780937203D9CF0E94C7211092A4
:104A0000730310927203E4EAF3E086E0DF011D9283
:104A10008A95E9F72C960FB6F894DEBF0FBECDBF8E
:104A2000DF91CF911F910895089508950C94152555
:104A30000C9416250E9418256093CC037093CD0327
:104A40008093CE039093CF030C94B5210C941A2538
:104A50000F931F930091CC031091CD032091CE03AF
:104A60003091CF03602B712B822B932B1F910F91D1
:104A70000C941A250F931F930091CC031091CD0332
:104A80002091CE033091CF0360237123822393239F
:104A90001F910F910C941A250F931F930091CC0333
:104AA0001091CD032091CE033091CF036027712761
:104AB000822793271F910F910C941A250C9415258A
:104AC0000E945E256093C8037093C9038093CA0354
:104AD0009093CB030C94B52160E070E0CB010C9473
:104AE0006025611571058105910529F481E0442354
:104AF00061F080E00895DC01CB0104C0B695A79574
:104B0000979587954A95D2F781700895482F6091BF
:104B1000C8037091C9038091CA039091CB030C9490
:104B200071250F931F9341E050E060E070E08A012F
:104B30009B0104C0000F111F221F331F8A95D2F75B
:104B4000C901B8011F910F910C9460250F931F9319
:104B500041E050E060E070E004C0440F551F661F64
:104B6000771F8A95D2F78091C8039091C903A091CD
:104B7000CA03B091CB038A019B01082B192B2A2B66
:104B80003B2BC901B8011F910F910C9460250F9325
:104B90001F9341E050E060E070E004C0440F551FF7
:104BA000661F771F8A95D2F740955095609570954E
:104BB0008091C8039091C903A091CA03B091CB031F
:104BC0008A019B01082319232A233B23C901B80129
:104BD0001F910F910C9460250F931F9341E050E0BB
:104BE00060E070E004C0440F551F661F771F8A9570
:104BF000D2F78091C8039091C903A091CA03B091E4
:104C0000CB038A019B01082719272A273B27C901C3
:104C1000B8011F910F910C9460250F931F93009181
:104C2000C8031091C9032091CA033091CB03602BB4
:104C3000712B822B932B1F910F910C9460250F9356
:104C40001F930091C8031091C9032091CA033091AA
:104C5000CB0360237123822393231F910F910C9424
:104C600060250F931F930091C8031091C9032091F1
:104C7000CA033091CB0360277127822793271F91A6
:104C80000F910C9460250895292F220F920F990FF0
:104C9000890FE82FE695E695E695877051E001C00B
:104CA000550F8A95EAF785E0E89FF0011124E65553
:104CB000FC4F20E030E070E04081CB01022E02C0CA
:104CC000969587950A94E2F78170819584278523CC
:104CD000842781932F5F3F4F2530310569F7089571
:104CE000292F220F920F990F890F682F66956695CD
:104CF0006695982F977085E0689FB001112440E079
:104D000050E080E0FB01E40FF51FE655FC4F2081E9
:104D100030E0092E02C0369527950A94E2F72170FB
:104D20003327042E01C0220F0A94EAF7822B4F5F2B
:104D30005F4F4530510531F70895BF92CF92DF9212
:104D4000EF92FF920F931F93CF93DF938C01C0904C
:104D5000C803D090C903E090CA03F090CB038091C0
:104D6000CC039091CD03A091CE03B091CF03C82A7C
:104D7000D92AEA2AFB2ACFE1D0E0D701C6010C2EBE
:104D800004C0B695A795979587950A94D2F780FDAC
:104D900004C0219790F7B12C07C0BC2EB8018C2F0E
:104DA0000E94AC0A0197A9F38B2DDF91CF911F913F
:104DB0000F91FF90EF90DF90CF90BF900895CF9329
:104DC000DF93EC010E949D26BE010E94AC0ADF9198
:104DD000CF9108951F93CF93DF93EB0190917103CF
:104DE000992321F0CB010E94DF2613C0882349F0CC
:104DF000CB010E949D26182F682FCE010E944426C9
:104E000004C0CB010E947026182FBE01812F0E9482
:104E1000AC0ADF91CF911F9108958091D0038595C1
:104E20008595859508958091D00387700895909118
:104E3000D003977081E009F480E008958091DC034D
:104E400008959091DC03892B8093DC03089580956D
:104E50009091DC0389238093DC0308951092DC0396
:104E600008959091DB03892B8093DB03089580954F
:104E70009091DB0389238093DB0308951092DB0379
:104E800008951092DA0308958091D103089508954A
:104E90000C9447270C9448279091D103981721F040
:104EA0008093D1030C944A2708958091D1038823DD
:104EB00029F01092D10380E00C944A270895E091E4
:104EC0007C01F0917D018091DC038083E0917C0185
:104ED000F0917D0190818091DB03892B8083E091AB
:104EE0007C01F0917D0190818091DA03892B808390
:104EF0008091D103882381F0E0917C01F0917D01C4
:104F00009081892B808380917C0190917D010E940A
:104F1000772881110E94552780917C0190917D0115
:104F20000C94781D0C94472798E0899F90011124D8
:104F3000262B2093D0030E94A6258091D00385952F
:104F4000859585950C9492271092D00380E00C945F
:104F500092272091D003809582238093D003982FAD
:104F6000977079F430E0482F082E000C550B241769
:104F7000350739F08595859585950E94C7250C9450
:104F8000A427089580E0089580E090E00E945E34B8
:104F900021E08B3E9E4F09F020E0822F089582E0B1
:104FA00090E00C94503483E090E00C945034682FDF
:104FB00083E090E00C946434CF9384E090E00E940E
:104FC0005034C82F81E290E00E9450342C2F30E002
:104FD000A901582BCA01CF910895CF93C92F682FEB
:104FE00084E090E00E9464346C2F81E290E0CF91E5
:104FF0000C946434AB01BC018FE090E00C947634E7
:10500000AB01BC0183E190E00C94763460E070E089
:10501000CB010C94002860E070E0CB010E94FA27DD
:105020000C9406286BEE7EEF80E090E00E948234C4
:1050300060E082E090E00E94643460E083E090E011
:105040000E9464341092CC031092CD031092CE03D0
:105050001092CF0360E084E090E00E94643460E04E
:1050600081E290E00E94643460E085E090E00E947C
:10507000643460E086E090E00E9464346FEF87E083
:1050800090E00E94643440E050E0BA0188E090E093
:105090000E94763460E08DE090E00E94643440E04D
:1050A00050E0BA0188E190E00E94763460E087E148
:1050B00090E00E94643440E050E0BA018CE190E05E
:1050C0000E94763460E080E290E00E94643440E028
:1050D00050E0BA0188E190E00E9476340C940B28ED
:1050E0000C941228682F8EE090E00C946434FC013C
:1050F000329697E080E0915029F021912223D9F354
:105100008F5FF9CF0895662349F0FC013296089627
:105110002191621729F0E817F907D1F780E0089587
:1051200081E008959C01FC0132969FEF80E041915F
:10513000461789F09F3F19F4411101C0982F8F5FE6
:105140008630A9F79F3F39F0F901E90FF11D97FD6E
:10515000FA956283089508959C012A5F3F4FFC01F0
:105160004281461301C01282019682179307B9F754
:1051700008950C9492280C94AC28029626E0FC0129
:1051800011922A95E9F7089508950C94C4280C9477
:10519000C428CF930E94C7280E942B070E94C528CD
:1051A000C0E08C2F0E94A107811104C0CF5FC830DE
:1051B000C1F701C081E0CF9108950C94C4280C94EC
:1051C000DD288091CA04843049F10E94DF2880E004
:1051D0000E94900A1092DE0320E488E190E00FB66E
:1051E000F894A895809360000FBE2093600083B769
:1051F000817F846083BF83B7816083BF7894889503
:1052000083B78E7F83BF0FB6F894A8958091600016
:10521000886180936000109260000FBE08950C9426
:10522000C4280E94C7210E946C1D0E94900A0C9401
:105230000F291F920F920FB60F9211248F939F93F5
:10524000AF93BF938091DE03811113C08091C0049E
:105250009091C104A091C204B091C3044196A11DD4
:10526000B11D8093C0049093C104A093C204B09375
:10527000C304BF91AF919F918F910F900FBE0F907C
:105280001F90189582E084BD93E095BD9AEF97BD7D
:1052900080936E0008952FB7F8948091C004909188
:1052A000C104A091C204B091C3042FBF08952FB7C9
:1052B000F8946091C0047091C1048091C2049091EF
:1052C000C3042FBF08959C014FB7F8948091C00488
:1052D0009091C104A091C204B091C3044FBF821B3E
:1052E000930B089578941F920F920FB60F9211248A
:1052F0008F939F93AF93BF938091C0049091C1040B
:10530000A091C204B091C3040196A11DB11D809368
:10531000C0049093C104A093C204B093C304BF918E
:10532000AF919F918F910F900FBE0F901F90189586
:1053300087E797E790930108809300089AE088E157
:105340000FB6F894A895809360000FBE909360000C
:10535000FFCF90935B0280935A0208950E94C42766
:10536000811102C00E9470280E94CF278093DD0324
:105370000E94DC279093C5048093C4040E94D32725
:10538000682F70E080E090E00E9426256091C803BD
:105390007091C9038091CA039091CB030C945E2550
:1053A0008091E7030895089522E02093E9002FEF0C
:1053B0003091E800215035FD06C035ED3A95F1F702
:1053C00000002111F5CF2091E80025FF0BC040E03F
:1053D00050E066E070E00E94B72B8091E8008E7785
:1053E0008093E8000895CF93DF9321E02093E900B4
:1053F0002FEF3091E800215035FD06C035ED3A958C
:10540000F1F700002111F5CF2091E80025FF14C02D
:10541000EC0140E050E068E070E00E94B72B809122
:10542000E8008E778093E80088E0FE01AFEDB3E0FE
:1054300001900D928A95E1F7DF91CF91089508953B
:105440008091C904811109C00E94482D0E94A52D98
:105450008091E20084608093E20008951092C90474
:10546000089508950895089542E061EC81E00E9456
:10547000C12C42E261EC82E00C94C12C8091CC04FE
:10548000833009F460C030F4813071F0823009F467
:1054900099C008958A3009F485C08B3009F46BC037
:1054A000893009F0A7C020C08091CB04813A09F06F
:1054B000A1C08091E800877F8093E8008091CF04AD
:1054C0009091D004892B21F468E08FED93E003C024
:1054D00060E080E090E070E00E94022C8091E800A3
:1054E0008B778093E80008958091CB04813209F096
:1054F00081C08091CF049091D004029708F07AC0C7
:105500008091E800877F8093E8008091E80082FD29
:1055100005C08091CA048111F8CF6CC02091F300BE
:105520008091F20090E0922B029729F48091F10093
:105530008B7F813021F48091F1008093E70380918B
:10554000E8008B7753C08091CB04813A09F052C0B8
:105550008091CF049091D004892B09F04BC08091A9
:10556000E800877F8093E8008091E80080FFFCCF0F
:105570008091880136C08091CB048132D9F5809129
:10558000CF049091D004892BA9F58091E800877F02
:105590008093E8000E94F62C8091CD0480938801CE
:1055A0000C94C7218091CB04813221F58091E800D1
:1055B000877F8093E8000E94F62C8091CE04809330
:1055C000E80308958091CB04813AA1F48091E8002A
:1055D000877F8093E8008091E80080FFFCCF809176
:1055E000E8038093F1008091E8008E778093E800D3
:1055F0000C94F62C089584B7877F84BF0FB6F89477
:10560000A89580916000886180936000109260008E
:105610000FBE90E080E80FB6F894809361009093FD
:1056200061000FBE0E94E81D0E94482D0E94A52D1A
:105630008091E20084608093E20078940E943A3086
:105640000E94F21D8EE791E00E94671D8091CA04BE
:105650008530A9F48091CA04853079F40E94E1284C
:105660008091C8048823B1F30E94C928882391F34C
:105670000E94A12B0E94C721EDCF0E9411290E94F8
:10568000FC1D0E94DC1D0E94DB1DE0CF0C94482B0A
:10569000292F332723303105C9F060F4213031053B
:1056A00081F02230310509F044C08BE390E02AE418
:1056B0003AE043C021323105E1F02232310549F1AF
:1056C00038C082E190E025E83AE037C09927813080
:1056D000910549F028F0029761F5E6E2FAE005C08D
:1056E000E6E4FAE002C0E4E3FAE0849190E09F018E
:1056F00024C06115710541F061307105D1F489E074
:1057000090E025E73AE019C089E090E02CE53AE026
:1057100014C06115710541F06130710551F489E4DF
:1057200090E027E93AE009C080E490E020EE3AE01A
:1057300004C080E090E020E030E0FA013183208373
:10574000089580E189BD82E189BD09B400FEFDCFE5
:105750008091D8008F7D8093D8008091E000826096
:105760008093E0008091E00081FDFCCF0895CF920E
:10577000DF92EF92FF920F931F93CF93DF93EC0191
:105780008B017A010E94152D811133C0E114F104BF
:1057900039F0F70180819181081B190BC80FD91FBF
:1057A000C12CD12C0115110519F18091E80085FD5E
:1057B00016C08091E8008E778093E800E114F10430
:1057C00049F0F70180819181C80ED91ED182C08233
:1057D00085E00FC00E94152D882321F30AC089910E
:1057E0008093F10001501109FFEFCF1ADF0ADACFE1
:1057F00080E0DF91CF911F910F91FF90EF90DF90AC
:10580000CF9008952091D1043091D2042617370704
:1058100048F06115710539F42091E8002E77209346
:10582000E80001C0B901FC0120E06115710579F1C2
:105830008091CA048823F1F18530F1F18091E8006C
:1058400083FD3CC08091E80082FD2EC08091E8007D
:1058500080FFEBCF2091F3008091F20090E0922B3B
:105860006115710551F08830910538F4219120932C
:10587000F100615071090196F3CF21E0089709F01A
:1058800020E08091E8008E778093E800CECF211150
:10589000CFCF0AC08091CA04882361F0853061F0BF
:1058A0008091E80083FD0AC08091E80082FFF2CF7A
:1058B00080E0089582E0089583E0089581E00895EE
:1058C0002091D1043091D2042617370748F0611592
:1058D000710539F42091E8002E772093E80001C08B
:1058E000B901FC0120E06115710591F18091CA04B4
:1058F000882309F440C0853009F43FC08091E80056
:1059000083FD3DC08091E80082FD2FC08091E800BA
:1059100080FFE9CF2091F3008091F20090E0922B7C
:105920006115710559F08830910540F42491209358
:10593000F1003196615071090196F2CF21E008978C
:1059400009F020E08091E8008E778093E800CBCFCB
:105950002111CCCF0AC08091CA04882361F0853020
:1059600061F08091E80083FD0AC08091E80082FF29
:10597000F2CF80E0089582E0089583E0089581E009
:105980000895982F973068F59093E900981739F0AB
:105990007091EC002091ED005091F00003C0242F95
:1059A000762F50E021FD02C09F5FECCF3091EB00DD
:1059B0003E7F3093EB003091ED003D7F3093ED0062
:1059C0003091EB0031603093EB007093EC0020934A
:1059D000ED005093F0002091EE0027FDE5CF80E030
:1059E00008958F708093E90081E008958091CB0441
:1059F00087FF11C08091E80082FD05C08091CA0434
:105A00008111F8CF11C08091E8008B770BC0809195
:105A1000CA04882349F08091E80080FFF8CF809184
:105A2000E8008E778093E80008952091E40030919B
:105A3000E50095E64091EC00842F817040FF23C083
:105A40008091E80080FD1DC08091CA04882399F0F0
:105A5000853099F08091EB0085FD11C04091E40004
:105A60005091E5002417350729F3915011F09A0160
:105A7000E1CF84E0089582E0089583E0089581E015
:105A8000089580E008954091E80042FFDDCF089539
:105A90000E94B62D0E94BE2DE0EEF0E08081816074
:105AA0008083E8EDF0E080818F77808319BCA7EDDB
:105AB000B0E08C918E7F8C9380818F7E808310925A
:105AC000C90408950F931F93CF93DF930E94B62DBF
:105AD0000E94BE2DC8EDD0E088818F7788838881B1
